{
  "contractName": "Election",
  "abi": [
    {
      "inputs": [],
      "stateMutability": "nonpayable",
      "type": "constructor"
    },
    {
      "anonymous": false,
      "inputs": [
        {
          "indexed": true,
          "internalType": "uint256",
          "name": "id",
          "type": "uint256"
        },
        {
          "indexed": true,
          "internalType": "string",
          "name": "name",
          "type": "string"
        },
        {
          "indexed": true,
          "internalType": "uint256",
          "name": "voteCount",
          "type": "uint256"
        }
      ],
      "name": "electionupdated",
      "type": "event"
    },
    {
      "inputs": [],
      "name": "candidateCount",
      "outputs": [
        {
          "internalType": "uint256",
          "name": "",
          "type": "uint256"
        }
      ],
      "stateMutability": "view",
      "type": "function",
      "constant": true
    },
    {
      "inputs": [
        {
          "internalType": "uint256",
          "name": "",
          "type": "uint256"
        }
      ],
      "name": "candidates",
      "outputs": [
        {
          "internalType": "uint256",
          "name": "id",
          "type": "uint256"
        },
        {
          "internalType": "string",
          "name": "name",
          "type": "string"
        },
        {
          "internalType": "uint256",
          "name": "voteCount",
          "type": "uint256"
        }
      ],
      "stateMutability": "view",
      "type": "function",
      "constant": true
    },
    {
      "inputs": [
        {
          "internalType": "address",
          "name": "",
          "type": "address"
        }
      ],
      "name": "voteornot",
      "outputs": [
        {
          "internalType": "bool",
          "name": "",
          "type": "bool"
        }
      ],
      "stateMutability": "view",
      "type": "function",
      "constant": true
    },
    {
      "inputs": [
        {
          "internalType": "uint256",
          "name": "_id",
          "type": "uint256"
        }
      ],
      "name": "Vote",
      "outputs": [],
      "stateMutability": "nonpayable",
      "type": "function"
    }
  ],
  "bytecode": "0x60806040523480156200001157600080fd5b50620000586040518060400160405280600a81526020017f696d72616d206b68616e00000000000000000000000000000000000000000000815250620000a460201b60201c565b6200009e6040518060400160405280600781526020017f7a61726461726900000000000000000000000000000000000000000000000000815250620000a460201b60201c565b620002c4565b600080815480929190620000b89062000218565b919050555060405180606001604052806000548152602001828152602001600081525060016000805481526020019081526020016000206000820151816000015560208201518160010190805190602001906200011792919062000128565b506040820151816002015590505050565b8280546200013690620001e2565b90600052602060002090601f0160209004810192826200015a5760008555620001a6565b82601f106200017557805160ff1916838001178555620001a6565b82800160010185558215620001a6579182015b82811115620001a557825182559160200191906001019062000188565b5b509050620001b59190620001b9565b5090565b5b80821115620001d4576000816000905550600101620001ba565b5090565b6000819050919050565b60006002820490506001821680620001fb57607f821691505b6020821081141562000212576200021162000295565b5b50919050565b60006200022582620001d8565b91507fffffffffffffffffffffffffffffffffffffffffffffffffffffffffffffffff8214156200025b576200025a62000266565b5b600182019050919050565b7f4e487b7100000000000000000000000000000000000000000000000000000000600052601160045260246000fd5b7f4e487b7100000000000000000000000000000000000000000000000000000000600052602260045260246000fd5b61087780620002d46000396000f3fe608060405234801561001057600080fd5b506004361061004c5760003560e01c80633477ee2e14610051578063a9a981a314610083578063dcd6a5cd146100a1578063de40fdd3146100bd575b600080fd5b61006b600480360381019061006691906103fa565b6100ed565b60405161007a939291906105d0565b60405180910390f35b61008b61019f565b60405161009891906105b5565b60405180910390f35b6100bb60048036038101906100b691906103fa565b6101a5565b005b6100d760048036038101906100d291906103cd565b610383565b6040516100e4919061055a565b60405180910390f35b60016020528060005260406000206000915090508060000154908060010180546101169061071b565b80601f01602080910402602001604051908101604052809291908181526020018280546101429061071b565b801561018f5780601f106101645761010080835404028352916020019161018f565b820191906000526020600020905b81548152906001019060200180831161017257829003601f168201915b5050505050908060020154905083565b60005481565b600260003373ffffffffffffffffffffffffffffffffffffffff1673ffffffffffffffffffffffffffffffffffffffff16815260200190815260200160002060009054906101000a900460ff1615610232576040517f08c379a000000000000000000000000000000000000000000000000000000000815260040161022990610575565b60405180910390fd5b60006001600083815260200190815260200160002060000154141561028c576040517f08c379a000000000000000000000000000000000000000000000000000000000815260040161028390610595565b60405180910390fd5b600180600083815260200190815260200160002060020160008282546102b2919061064a565b925050819055506001600260003373ffffffffffffffffffffffffffffffffffffffff1673ffffffffffffffffffffffffffffffffffffffff16815260200190815260200160002060006101000a81548160ff02191690831515021790555060016000828152602001908152602001600020600201546001600083815260200190815260200160002060010160405161034b9190610543565b6040518091039020827f3c841f91385f410e6f12269c9a0c0eb656e360f1e2d6f91144cfd51a10a2a31860405160405180910390a450565b60026020528060005260406000206000915054906101000a900460ff1681565b6000813590506103b281610813565b92915050565b6000813590506103c78161082a565b92915050565b6000602082840312156103e3576103e26107ab565b5b60006103f1848285016103a3565b91505092915050565b6000602082840312156104105761040f6107ab565b5b600061041e848285016103b8565b91505092915050565b610430816106b2565b82525050565b600061044182610623565b61044b818561062e565b935061045b8185602086016106e8565b610464816107b0565b840191505092915050565b6000815461047c8161071b565b610486818661063f565b945060018216600081146104a157600181146104b2576104e5565b60ff198316865281860193506104e5565b6104bb8561060e565b60005b838110156104dd578154818901526001820191506020810190506104be565b838801955050505b50505092915050565b60006104fb601d8361062e565b9150610506826107c1565b602082019050919050565b600061051e60138361062e565b9150610529826107ea565b602082019050919050565b61053d816106de565b82525050565b600061054f828461046f565b915081905092915050565b600060208201905061056f6000830184610427565b92915050565b6000602082019050818103600083015261058e816104ee565b9050919050565b600060208201905081810360008301526105ae81610511565b9050919050565b60006020820190506105ca6000830184610534565b92915050565b60006060820190506105e56000830186610534565b81810360208301526105f78185610436565b90506106066040830184610534565b949350505050565b60008190508160005260206000209050919050565b600081519050919050565b600082825260208201905092915050565b600081905092915050565b6000610655826106de565b9150610660836106de565b9250827fffffffffffffffffffffffffffffffffffffffffffffffffffffffffffffffff038211156106955761069461074d565b5b828201905092915050565b60006106ab826106be565b9050919050565b60008115159050919050565b600073ffffffffffffffffffffffffffffffffffffffff82169050919050565b6000819050919050565b60005b838110156107065780820151818401526020810190506106eb565b83811115610715576000848401525b50505050565b6000600282049050600182168061073357607f821691505b602082108114156107475761074661077c565b5b50919050565b7f4e487b7100000000000000000000000000000000000000000000000000000000600052601160045260246000fd5b7f4e487b7100000000000000000000000000000000000000000000000000000000600052602260045260246000fd5b600080fd5b6000601f19601f8301169050919050565b7f796f75206861766520766f746520666f72207061727469636970616e74000000600082015250565b7f74686520696420646f65736e6f74206578697400000000000000000000000000600082015250565b61081c816106a0565b811461082757600080fd5b50565b610833816106de565b811461083e57600080fd5b5056fea2646970667358221220d9c4802b194ff7e4df334f5a8f9e85fd91d78dc7671105425986292d1769790364736f6c63430008060033",
  "immutableReferences": {},
  "source": "// SPDX-License-Identifier: MIT\r\npragma solidity 0.8.6;\r\n\r\ncontract Election {\r\n    //struct condidate\r\n    struct Candidate {\r\n        uint256 id; //1\r\n        string name;\r\n        uint256 voteCount;\r\n    }\r\n    //candidate count\r\n    uint256 public candidateCount; //2\r\n    //mapping candidate for accees the particular candidate\r\n    mapping(uint256 => Candidate) public candidates; //3\r\n\r\n    //this mapping tell us that address has voted or not\r\n    mapping(address => bool) public voteornot;\r\n\r\n    event electionupdated(\r\n        uint256 indexed id,\r\n        string indexed name,\r\n        uint256 indexed voteCount\r\n    );\r\n\r\n    //constructor\r\n    constructor() {\r\n        //the code that we want to initiate\r\n        //imran khan and zardari\r\n        addCandidate(\"imram khan\");\r\n        addCandidate(\"zardari\");\r\n    }\r\n\r\n    // add Candidates\r\n\r\n    function addCandidate(string memory name) private {\r\n        candidateCount++;\r\n        candidates[candidateCount] = Candidate(candidateCount, name, 0);\r\n    }\r\n\r\n    function Vote(uint256 _id) public {\r\n        //  the person has not voted again\r\n        require(!voteornot[msg.sender], \"you have vote for participant\");\r\n        // the id that the person has input is avaliable\r\n        require(candidates[_id].id != 0, \"the id doesnot exit\");\r\n\r\n        //increase the vote count of the person whom the\r\n        candidates[_id].voteCount += 1;\r\n        //bool true record that voter has voted\r\n        voteornot[msg.sender] = true;\r\n        // triger voted event\r\n        emit electionupdated(\r\n            _id,\r\n            candidates[_id].name,\r\n            candidates[_id].voteCount\r\n        );\r\n    }\r\n}\r\n",
  "sourcePath": "E:/Election-Dapp/Election_dapp/contracts/Election.sol",
  "compiler": {
    "name": "solc",
    "version": "0.8.6+commit.11564f7e.Emscripten.clang"
  },
  "schemaVersion": "3.4.1",
  "updatedAt": "2021-08-31T12:04:24.242Z",
  "networkType": "ethereum",
  "devdoc": {
    "kind": "dev",
    "methods": {},
    "version": 1
  },
  "userdoc": {
    "kind": "user",
    "methods": {},
    "version": 1
  }
}